:020000040800F2
:10000000E8040020C90000089D1700085F150008DB
:1000100000000000000000000000000000000000E0
:10002000000000000000000000000000E7170008CA
:100030000000000000000000E5170008E9170008B4
:10004000DB00000800000000DB000008DB00000807
:10005000DB000008DB000008DB000008DB00000814
:1000600000000000DB000008DB000008DB000008E7
:10007000DB000008DB000008DB00000800000000D7
:10008000B9180008DB00000800000000DB000008D1
:10009000DB000008DB000008DB000008DB000008D4
:1000A000DB000008DB000008DB000008DB000008C4
:1000B000DB0000080348854600F09EFA0048004730
:1000C000551D0008E8040020044880470448004704
:1000D000FEE7FEE7FEE7FEE7FEE7FEE75D18000845
:1000E000B500000830B50B4601460020202201244F
:1000F00009E00D46D5409D4205D31D469540491B5C
:100100002546954040191546521E002DF1DC30BDA4
:1001100070B500242546002801DA01244042002958
:1001200001DA01254942FFF7DDFFAC4200D0404231
:10013000002C00D0494270BD10B5202A04DB0846CF
:10014000203AD040002110BD0B46D340D04020249F
:10015000A21A91400843194610BD00000EB5C217FF
:10016000C10F5040CA0740180021054B029301926D
:1001700000910A460B4600F030F803B000BD0000C5
:10018000330400004A0009030123090B1B0519432E
:10019000094B10B5520D9A4201DA002010BD064BF2
:1001A00034339A4203DC9A1AFFF7C6FF10BD0349A5
:1001B0005118884010BD0000FF030000CDFBFFFF79
:1001C00010B5002B08DA0024401C614192185B41F5
:1001D0001A4301D14008400010BDF0B51FB482B0F1
:1001E00005460C0003D0084601F0F0FC02E001F0E7
:1001F000EDFC2030024600902146284600F00EFA21
:10020000049B059A04460F4618431143084314D033
:10021000184610431BD0009840210A1A1846059929
:10022000FFF78AFF05460E46009A0599049800F0EC
:10023000F5F9084305D0012004E02046394607B00F
:10024000F0BD0020C11705430E432C4337430099EE
:100250000E986305401A7905E40A00220C43FD0A52
:100260000A3002D500200146E9E70105101969416D
:100270000C9C0D9D00196941FFF7A2FFDFE700000C
:10028000F0B507460846584087B0C00F04904800B4
:100290000E46590040084908BC1A884105D2384624
:1002A00031461E4617460B4602465800400810438A
:1002B0004CD0300D039040055900400D490D05907C
:1002C000401A0290402872DA18030121000B090538
:1002D0000843019004980092002805D001995242E9
:1002E0000020884100920190029840210A1A019949
:1002F000009800F093F905460C466B4607CB00F0DA
:100300009DF9C0197141039A0E0D0023D71756406D
:100310001A467A40164344D0049A002A2DD0029AF5
:10032000012A039A15DC1205C01A914101263605EF
:10033000001C7141D20F059ED207009301920296D4
:100340002A462346FFF749FF07B0F0BD384631463D
:10035000FAE71605224A0F46B218C01AB741012122
:100360000905001C4F4100187F41114618187941BA
:10037000E20F10436D19644113E0E2076D08154365
:100380006408C2071443039A01261205C01A91415A
:100390003605001C7141CE07400830434908C0189B
:1003A00051412A462346FFF70BFFCDE7FFE70498AC
:1003B00001224000C117121A00238B4104983146D4
:1003C000C417381AA141EEE730B40124E4076340B2
:1003D00030BC55E730B40124E407614030BC4FE73E
:1003E0000000E0FFF0B51FB488B00B990998002415
:1003F00048400999C00F490049080991C0070B9965
:100400000090490049080B9109990898A6460843AD
:100410001CD00B990A98084318D009980124400071
:10042000420D4800410D099824050003000B2043AC
:1004300009900B980003000B20430B9050181C49A7
:100440004018002201901446104605E000200146A5
:100450000DB0F0BD032801DA034600E003239C46FB
:10046000C11A0AAE0AE05F0008ADED5B4F00F75B12
:100470007D430027AA187C41491C5B1E6145F2DDC3
:10048000410004AB5A522104120C0A43240C401CB4
:100490000828DFDB019802900099704601910090D6
:1004A000059B049A07990698FFF797FED0E700008E
:1004B0000DFCFFFFF0B50C465C4085B0E40FE4078F
:1004C00003944C00002664085900944649080246EB
:1004D0000296224321D062460A431ED06200570D85
:1004E0004A000E032303550D012402462C4924051E
:1004F000781B1B0B360B40182343264361460090A4
:100500001C46501AB44103D30098401C009002E0EE
:10051000921800985B41002803DA0020014605B0DC
:10052000F0BD0020012109050746864611E064461A
:100530001D46141BB54106D36546521BB341744694
:1005400007430C43A646CD074008490828439218A4
:100550005B4105460D43EAD11046184313D060466F
:10056000194650407140084306D06046101AB34106
:1005700006D20122002306E000220123DB0702E06D
:100580000122D2435310009874460105381C614182
:10059000029C039D00196941FFF712FEBFE70000AE
:1005A000FD03000070B54B005B0803430BD04B000C
:1005B0005C0D002633466542B341D417AD1AA34102
:1005C00002DB0020014670BD12053018514170BD9C
:1005D00010B5002904DB0124E40740428C41214688
:1005E000002B04DB1C460123DB075242A341994246
:1005F00000D1904210BD0000064C0125064E05E0DA
:10060000E36807CC2B430C3C98471034B442F7D333
:10061000FFF754FD302A0008502A000810B5202AA0
:1006200004DB0146203A9140002010BD9140202378
:100630009C1A0346E3401943904010BD10B5202A90
:1006400006DBCB170846203A1041C1170B4306E0E2
:100650000B461341D0402024A21A9140084319466A
:1006600010BDFEB500231A461B1A8A4103DB002089
:10067000014603B0F0BD4A000D0301212D0B090511
:10068000520D0D43D10702D100186D41521E511079
:10069000FF31FF310131002704463E4638460097BE
:1006A00001910246012100200905FFF745FDC3190C
:1006B0007141F818324684468E464A4161462846C2
:1006C000611A904104D36046241A954176461F462C
:1006D000241900986D41401C00903428E1DDF9197F
:1006E00030467041091BA84103D20022D243134671
:1006F00001E00022134601980105381C7141FFF703
:100700005FFDB6E731B500F0B5F8009C0546601C0A
:1007100000D0641C00F0AEF8401BA042FAD338BDF4
:10072000F8B500238DE001249C40A44622407DD0F2
:100730004C68022C01D0122C0CD1DC08A400271824
:100740003C6A5D07ED0E0F26AE40B4430E69AE4025
:1007500026433E6205685E000324B4400F79A5433A
:10076000BF07BF0FB7402F4307604D68012D05D06D
:10077000022D03D0112D01D0122D0ED18568CF6826
:10078000A543B7402F43876047686546AF430D795F
:10079000ED06ED0F9D403D434560C568A5438C685F
:1007A000B4402C43C4604C68E40049D5284CA5698A
:1007B00001263543A561A4699D0834400094254C69
:1007C000AD002F19BC689D072E0F0F25B540AC4317
:1007D0000925ED06A84201D100250FE01E4DA842D3
:1007E00001D101250AE01D4DA84201D1022505E0F5
:1007F0001B4DA84201D1032500E00525B540254346
:10080000BD60184C25684E689543F60300D5154326
:10081000256065684E689543B60300D5154365604D
:10082000A5684E689543F60202D500E008E015433E
:10083000A560E5684E689543B60200D51543E560AE
:100840005B1C0A681446DC4000D06CE7F8BD000071
:100850000010024000000140000400480008004869
:10086000000C004800040140002A01D0816170475B
:100870008162704701480068704700000C0000204A
:1008800070B5024640325378202B1CD11378012BCF
:1008900019D00123137024245470046825689D43E3
:1008A0002560046825681E03B54325600468256833
:1008B0000D432560006801681943016020205070D5
:1008C0000020107070BD022070BD70B5024640322D
:1008D0005378202B1BD11378012B18D001241470CE
:1008E0002423537003681D68A5431D6005682B68A9
:1008F0000F263602B34309021943296000680168D4
:1009000021430160202050700020107070BD022033
:1009100070BD000070B5040006D0254640356878EB
:100920000026002802D005E0012070BD2E70204670
:1009300000F04AF8242068702068016849084900DE
:1009400001600F21606809068843216808612168F9
:100950008A680120C00382438A60E1680129A16896
:1009600008D021229202114322689160E168022995
:1009700002D005E00143F7E701212268C902516076
:1009800021684A680F4B1A434A602168CA6882434B
:10099000CA60616920690843A169090208432168A6
:1009A000C860216AE069084321680860206801681E
:1009B0000122114301606664202068702663AE70D6
:1009C000002070BD0080000200B500680D4987B0AE
:1009D000884214D1C0200090122001900120029082
:1009E0000320039069460848FFF79AFE0748C2694A
:1009F000012189050A43C261C0690840059007B01A
:100A000000BD0000005800400014004800100240E3
:100A100002480168491C0160704700000C0000207A
:100A200010B506480168102211430160002000F053
:100A300007F800F017F8002010BD00000020024069
:100A400010B5044600F0D4F87D21C900FFF74AFB39
:100A500000F0C8FA00222146501E00F02FF80020B6
:100A600010BD000008B50F48816901221143816162
:100A7000816911400091C26901040A43C261C069E1
:100A80000022084000901146501F00F017F8002285
:100A90001146901E00F012F800221146501E00F080
:100AA0000DF808BD00100240C106C90E01208840A3
:100AB000014908607047000000E100E010B500F057
:100AC0006FFE10BDF8B5054644480E460068C007E5
:100AD000C00FB0420AD24148016849084900314379
:100AE00001600068C007C00FB0425CD128783C4C60
:100AF000800705D56068F0218843A96808436060D5
:100B00002878C0073FD06868012813D021680228E0
:100B100013D08907002946DA6168890889000143F2
:100B20006160FFF7A7FE6968074601290DD0022919
:100B300017D024E021688903ECE78901EAE7FFF791
:100B400099FEC11B2748814217D860680007800FB3
:100B50000128F4D117E0FFF78DFEC11B2148814227
:100B60000BD860680007800F0228F4D10BE0FFF774
:100B700081FEC11B1B48814201D90320F8BD60687A
:100B80000007800FF3D115480168C907C90FB142AA
:100B90000BD9016849084900314301600068C0076A
:100BA000C00FB04201D00120F8BD2878400706D51B
:100BB0006068072109028843E9680843606000F023
:100BC0001DF86168084A0906090F515CC8400749C9
:100BD00008600020FFF734FF0020F8BD002002402D
:100BE00000100240881300008C290008100000202B
:100BF00001480068704700001000002010B512A3E3
:100C00000FCB88B06C460FC413A30FCB0FC416498B
:100C10004A680C20134603401448042B0FD0082BBD
:100C20000DD193021B0F6C46E45CC96A04AB090743
:100C3000090F595CD20304D5FFF754FA604308B09A
:100C400010BD0B486043FAE70203040506070809D4
:100C50000A0B0C0D0E0F1010010203040506070805
:100C6000090A0B0C0D0E0F100010024000127A0042
:100C700000093D00FEB504460078D04DC00747D0BE
:100C800068680007800F012807D068680007800F98
:100C9000022809D16868C00306D52868800337D5C3
:100CA000606800287ED033E0012062680004012AD9
:100CB00011D08100002A01D0052A10D02A68824371
:100CC0002A602868884328606068002814D0FFF7ED
:100CD000D1FD06460CE0296801432960F4E72A6843
:100CE0000A432A60F7E7FFF7C5FD801B64286FD829
:100CF00028688003F7D50BE0FFF7BCFD064604E04B
:100D0000FFF7B8FD801B6428F1D828688003F7D46A
:100D100020780126800700283BDA68680007800FEA
:100D200007D068680007800F022809D16868C003EF
:100D300006D42868800715D5E068012832D111E073
:100D4000E0680028286815D030432860FFF792FD3E
:100D5000074604E0FFF78EFDC01B0228C7D82868AD
:100D60008007F7D52868F82188432169C90008431E
:100D700028600EE0400840002860FFF77BFD074632
:100D800004E0FFF777FDC01B0228B0D82868800771
:100D9000F7D42078000724D5E0690028686A10D0CD
:100DA000304300E008E16862FFF764FD074604E0B5
:100DB000FFF760FDC01B022899D8686A8007F7D545
:100DC0000FE0400840006862FFF754FD074605E069
:100DD0009DE0FFF74FFDC01B022888D8686A800796
:100DE000F7D4207804274007002860DA002001901B
:100DF000E869C00008D4E969B8060143E961E96916
:100E000001400120009101906D480168C90511D48D
:100E10000168821511430160FFF72CFD009005E089
:100E2000FFF728FD0099401A642870D864480068CC
:100E3000C005F5D5A06801280AD0002801D00528F2
:100E400010D0286A400840002862286AB84301E0B0
:100E5000286A30432862A068002812D0FFF70AFDF4
:100E600000900AE0286A38432862F1E7FFF702FDA4
:100E70000099411A5348814249D8286A8007F5D51C
:100E80000DE0FFF7F7FC009006E0FFF7F3FC009998
:100E9000411A4C4881423AD8286A8007F5D4019813
:100EA000002804D0E969012000078143E961207826
:100EB000C00635D5606901280CD0401D686B23D071
:100EC00038436863686B400840006863FFF7D2FCF2
:100ED000064622E0686B38436863686B304368639A
:100EE000FFF7C8FC064604E0FFF7C4FC801B02289D
:100EF0005BD8686B8007F7D5686BF8218843A169D8
:100F0000C900084368630BE0B8436863F4E74CE04A
:100F1000FFF7B0FC801B022847D8686B8007F7D426
:100F2000206A002846D069680907890F022943D042
:100F3000012636060228286805D0B0432860FFF74E
:100F400099FC044633E0B0432860FFF793FC074662
:100F500004E0FFF78FFCC01B022826D82868800118
:100F6000F7D4E86AE16A000900010843E862616AAF
:100F7000A06A084369683D221204914308436860EF
:100F8000286830432860FFF775FC044604E0FFF74B
:100F900071FC001B022808D828688001F7D509E0F9
:100FA000FFF768FC001B022801D90320FEBD28685A
:100FB0008001F5D40020FEBD0120FEBD00100240DE
:100FC00000700040881300000422044904280869C6
:100FD00002D09043086170471043FBE700E000E057
:100FE00070470000094910B5401E884201D9012010
:100FF00010BD074C60610321081F00F0D1FB0020E9
:10100000A06107202061002010BD0000FFFFFF004D
:1010100000E000E010B5FFF7E3FF10BD7047704738
:1010200070B5034620331A7F012A27D001241C778C
:1010300002225A770326CA683602B2438E68002518
:101040003243A602B2434E6800683243E602B2431E
:101050000E6832432603B2430E6932436603B2433D
:101060004E6989693243A603B2430A43E603B24399
:101070000A4342645C771D77002070BD022070BD7A
:1010800070B502462032137F012B1BD0012313774A
:1010900002245477046865687026B5436560046867
:1010A00065680E68354365600468A5688026B543A9
:1010B000A5600068846849680C4384605377002009
:1010C000107770BD022070BD70B5040005D02546B4
:1010D0002035687F002802D006E0012070BD002086
:1010E0002877204600F00AF802206877211D206842
:1010F00000F0EAFB01206877002070BD08B5104AB7
:1011000001681048914207D18269C1140A43826183
:1011100080690840009008BD0B4A9142FBD1C2692A
:1011200002210A43C261C0690022084000901146B2
:101130001020FFF7C3FC1020FFF7B6FC08BD00002D
:10114000002C014000100240000400400268D368F7
:1011500001210B43D360006802680A43026000204B
:101160007047F8B5054604462035287F012817D07A
:1011700001272F7702206877226890687726FF235F
:10118000B0431B02984390600868502837D00EDCAB
:10119000202857D006DC00284ED0102840D14EE041
:1011A0000220F8BD302850D0402839D13CE06028DA
:1011B0002DD0702817D001221203801A0ED0904231
:1011C0002ED1CB684A688968206800F0CCFB206883
:1011D0008168012292031143816021E020688168C7
:1011E000C908C900F8E7CB684A688968206800F038
:1011F000BAFB21688868B0433043886010E0CA6851
:101200004968206800F0BEFC5021206806E0CA68EA
:101210004968206800F0C7FC6021206800F0AEFB40
:101220006F7700202877F8BDCA684968206800F009
:10123000A9FC40212068F1E700212068EEE7102199
:101240002068EBE720212068E8E730212068E5E707
:10125000704770B50446006801690025C9438907D5
:10126000002915DBC168C943890711D4E91E016152
:1012700001202077206880698007204602D0FFF790
:10128000E7FF04E000F0AEF8204600F02FF92577E4
:1012900020680169C943490717D4C168C943490790
:1012A00013D40421C943016102202077206880699A
:1012B0008005800F204602D0FFF7CAFF04E000F04F
:1012C00091F8204600F012F9257720680169C9439A
:1012D000090716D4C168C943090712D40821C943B4
:1012E0000161042020772068C0698007204602D071
:1012F000FFF7AEFF04E000F075F8204600F0F6F8C6
:10130000257720680169C943C90617D4C168C94354
:10131000C90613D41021C943016108202077206831
:10132000C0698005800F204602D0FFF791FF04E0DE
:1013300000F058F8204600F0D9F8257720680169B8
:10134000C943C90708D1C168C943C90704D1891E67
:101350000161204600F0F4F820680169C9430906DC
:1013600009D4C168C943090605D48021C943016174
:101370002046FFF753FE20680169C943490609D496
:10138000C168C943490605D44021C94301612046CB
:1013900000F0E4F820680169C943890609D4C168EE
:1013A000C943890605D42021C94301612046FFF7BE
:1013B00036FE70BD00B50068094985B088420CD181
:1013C0008015009000200221029003900191049169
:1013D00009206946C006FFF7A3F905B000BD00006B
:1013E000002C01407047F8B5064604462036307F91
:1013F0000D4601280DD00120307702207077042798
:10140000002A08D0042A16D0082A2AD00C2A4DD146
:1014100037E00220F8BD206800F0B8FA2068816942
:1014200008221143816120688169B9438161206884
:1014300081692A6912E0206800F0ECFA206882696C
:101440000121C9020A438261206881690122920256
:1014500091438161206881692A6912021143816187
:1014600024E0206800F016FB2068C26908210A43C6
:10147000C2612068C169B943C1612068C1692A6934
:1014800012E0206800F048FB2068C1690122D20206
:101490001143C1612068C269012189028A43C26186
:1014A0002068C1692A6912021143C1610120707765
:1014B00000203077F8BD70B5040005D025462035F2
:1014C000687F002802D006E0012070BD0020287748
:1014D000204600F00AF802206877211D206800F0FD
:1014E000F3F901206877002070BD70477047000055
:1014F00010B504460068012200F02AFA0C48216861
:10150000814208D00B48814205D00B48814202D06D
:101510000A48814204D1486C0122D2031043486436
:1015200020680168012211430160002010BD000005
:10153000002C0140004001400044014000480140AF
:10154000044900680968884203D103488168491C3E
:1015500081607047A4000020000000207047FEE773
:10156000F0B52F4887B042690121C9040A4342619E
:1015700042690A400592426989100A434261426900
:101580000A400592426949000A43426142690A40A1
:101590000592426909010A4342614069214D0840B0
:1015A0000927FF060590002229463846FFF75CF917
:1015B0001D4E002231461D48FFF756F90120400319
:1015C000002400900194694602941948FFF7A8F896
:1015D0000095012502946946384601950394FFF76A
:1015E0009FF80C20009002200190032003900294A9
:1015F000694604953846FFF793F80E480090019429
:10160000694602943846FFF78BF80294694607480A
:10161000009601950394FFF783F807B0F0BD000032
:1016200000100240E3820000FFFF000000040048B9
:1016300000080048101C000010B512481049016055
:101640001149416000218160016141618161012294
:10165000C161C2600162FFF75DF9002800D0FEE7BA
:1016600000210848FFF70CF9002800D0FEE7002110
:101670000448FFF72AF9002800D0FEE710BD00005B
:1016800000580040180000205D3E302010B5294869
:1016900094B02749016000242749846041600461B7
:1016A0004461C8218461C160FFF70EFD002800D0AD
:1016B000FEE7012000030E900EA91E48FFF751FD22
:1016C000002800D0FEE71B48FFF7F5FE002800D0F9
:1016D000FEE7129412A917481394FFF7D1FC0028D3
:1016E00000D0FEE7602005940194009002940394DA
:1016F00004940022694606940E48FFF774FE002801
:1017000000D0FEE701200794400308940C90099450
:101710000A940B9407A90D940648FFF781FC002852
:1017200000D0FEE70348FFF745FE14B010BD0000EF
:10173000002C014064000020BF12000010B51448C6
:1017400086B012490160002412498460416004613E
:1017500011498461C160FFF7B7FC002800D0FEE7A3
:1017600001200003009069460948FFF7FAFC0028B1
:1017700000D0FEE7049404A905480594FFF780FC17
:10178000002800D0FEE706B010BD000000040040B5
:10179000A40000207FBB0000E703000070470000AA
:1017A0008307FF22DB0E9A408907090E9940002823
:1017B0000BDA0007000F0838830808489B00181848
:1017C000C36993430B43C3617047830804489B007C
:1017D0001B181868904308431860704700ED00E03C
:1017E00000E400E07047704710B5FFF711F9FFF70C
:1017F00011FC10BD30B591B00120039000241020E1
:1018000009940225049005200095C0040A900895CB
:101810000B946846FFF72EFA002800D0FEE7072059
:101820000C900E9401210D950F940CA8FFF74AF926
:10183000002800D0FEE7FFF7DBF97D21C900FEF7A5
:1018400051FCFFF7CFFB0420FFF7BEFB002211463F
:10185000501EFFF733F911B030BD00001348016886
:101860000122114301604168114A11404160016841
:10187000104A114001600168012292049143016005
:1018800041683F22120491434160C16A090909017C
:10189000C162016BFF22143291430163416B49081D
:1018A0004900416300218160704700000010024040
:1018B0000CB8FF08FFFFF6FE10B50248FFF7C9FCA1
:1018C00010BD0000A4000020F0B502681A4B1B4CAC
:1018D000984201D0A04203D17025AA434D682A4303
:1018E000174D184E184F98420AD0A04208D0174CF6
:1018F000A04205D0A84203D0B04201D0B84205D1E1
:101900001446032212029443CA6822438024A2434D
:101910004C69224302608A68C2620A688262984205
:1019200005D0A84203D0B04201D0B84201D1096924
:10193000016301214161F0BD002C01400004004021
:1019400000400140004401400048014000200040A8
:1019500010B50123046A8B409C430462036A8A40E9
:101960001343036210BD30B58468FF252D021B02AE
:101970001343AC430B432343836030BD8268702321
:101980009A430A4307210A4382607047F0B5026A0E
:10199000520852000262056A436882697024A243B9
:1019A00092080C6892001443022295438A68164EEE
:1019B0002A43144DA84207D0B04205D0134FB84275
:1019C00002D0134FB84206D10827BA43CF68174355
:1019D000042297433A46A84207D0B04205D00B4DA7
:1019E000A84202D00A4DA84206D103252D02AB43DE
:1019F0004D691D438B692B43436084614968416392
:101A00000262F0BD002C0140004001400044014052
:101A10000048014070B5026A10239A430262056AC9
:101A20004268836973242402A3430C6824021C4384
:101A300020239D438B681B012B43124DA84208D1E4
:101A40001D46CB688026B5431B012B434025AB4385
:101A500008E00D4DA84205D00C4DA84202D00C4D17
:101A6000A84208D10325AD02AA434D69AD00154334
:101A70008A6992002A4342608461496881630362F3
:101A800070BD0000002C01400040014000440140B6
:101A90000048014070B5026AFF2301339A43026295
:101AA000056A4368C2697024A24392080C689200D8
:101AB00014430122520295438A6812022A43124DAE
:101AC000A84208D11546CA68C614B54312022A4373
:101AD0000515AA4308E00D4DA84205D00C4DA842BB
:101AE00002D00C4DA84208D103252D03AB434D690C
:101AF0002D011D438B691B012B434360C461496861
:101B0000C163026270BD0000002C01400040014032
:101B1000004401400048014030B5026A01231B0324
:101B20009A430262046A4268C36973252D02AB437B
:101B30000D682D021D4301235B039C438B681B032F
:101B400023430C4CA04208D00B4CA04205D00B4CB8
:101B5000A04202D00A4CA04205D10124A403A24312
:101B60004C69A40122434260C56149680164036273
:101B700030BD0000002C0140004001400044014005
:101B80000048014030B5036A046A640864000462D6
:101B90008469F025AC43120122430A24A3430B437A
:101BA0008261036230BD30B5036A1024A34303622F
:101BB0008469036A0F252D031203AC432243A0243A
:101BC000A343090119438261016230BD2021020C47
:101BD00001D010211046020A01D01046083902092E
:101BE00001D01046091F820801D01046891E420804
:101BF00001D0881E7047081A704700004900CA02C9
:101C00000243100000D004204A0D01D001221043ED
:101C1000044A490D914201D102210843012800D113
:101C200005207047FF070000F8B504464F1EC800A6
:101C30000838211815461E46086849683A460623A2
:101C40009A4310D02A463346FEF7CCFB3A46D200E0
:101C5000083AA3181A687F1E5B68FEF711FB06227C
:101C60003B469343EED1022F23D0042F11D0062FF1
:101C70002FD12A463346FEF7B5FBE36AA26AFEF788
:101C8000FFFA2A463346FEF7ADFB636A226AFEF787
:101C9000F7FA2A463346FEF7A5FBE369A269FEF789
:101CA000EFFA2A463346FEF79DFB63692269FEF789
:101CB000E7FA2A463346FEF795FBE368A268FEF78B
:101CC000DFFA2A463346FEF78DFB63682268FEF78B
:101CD000D7FAF8BD002210B5134610460149FEF7A9
:101CE000E9FB10BD0000F03F10B5FEF7C9FA10BDCA
:101CF000002210B5134610461146FEF7DBFB10BD5F
:101D000010B50721024A00200907FEF74BFC10BD61
:101D100001030000034A10B500201107FEF742FC42
:101D200010BD000001FDFFFF02E008C8121F08C13E
:101D3000002AFAD170477047002001E001C1121F4C
:101D4000002AFBD17047000001490860704700007D
:101D500014000020FEF764FEFFF74CFDFFF700FCC7
:101D6000FFF76AFCFFF792FCFFF7E8FC194D1A4CED
:101D7000012229462046FEF777FD00F081F8012276
:101D800029462046FEF770FD00211448FFF7B0FBFE
:101D900012484030FFF7DAF92646114C0122294655
:101DA0003046FEF761FD002221883046FEF75CFDDB
:101DB0000A21A068FEF7ACF9002901D100F09EF8D5
:101DC0000721A068FEF7A4F90029E7D100F00AF87E
:101DD000E4E70000FFFF000000040048640000206A
:101DE0000000002070B5234D234E012229463046C5
:101DF000FEF73AFD214C002261883046FEF734FDA3
:101E00006420FEF77FFC012229463046FEF72CFDB8
:101E1000002221883046FEF727FDFF209130FEF793
:101E200071FC012229463046FEF71EFD0022618822
:101E30003046FEF719FD6420FEF764FC01222946B6
:101E40003046FEF711FD002221883046FEF70CFDDA
:101E50004B200001FEF756FC012229463046FEF7D2
:101E600003FD002261883046FEF7FEFC6420FEF789
:101E700049FC70BDFFFF0000000400480000002086
:101E8000F8B50925ED0632260122C0212846FEF7C5
:101E9000EBFC0024EF002046FEF760F902460B46FB
:101EA0000020394600F050F8FEF76CF981B20022AC
:101EB0000E48FEF7D9FC3046FEF724FC641C102CBB
:101EC000E9DB0122D40321460848FEF7CDFC0022BD
:101ED00021462846FEF7C8FC3046FEF713FC0122D7
:101EE00021462846FEF7C0FCF8BD0000000400486B
:101EF00001490968486370476400002070B5104CC0
:101F000001220E492046FEF7AFFC0E4800228188D0
:101F10002046FEF7A9FC0024FF2591350A20FFF793
:101F2000E7FF2846FEF7EEFB1420FFF7E1FF284607
:101F3000FEF7E8FB641C032CF0DB70BDFFFF000024
:101F40000004004800000020F0B51FB496B084469D
:101F50000C460246199D18980390490068006300DA
:101F6000490840080193002A01D0012600E000261C
:101F70009E19FE4BF6185B109E422BD36E00039FFA
:101F80000296002F00D00127F719F84EF84BBE1922
:101F90009E421FD3039E0346F64F334309D03B4670
:101FA0009C4201D1002A04D0019B002A05D00126C1
:101FB00004E0002039461BB0F0BD00269E19EE4B10
:101FC0009E4207D8039F029E002F00D00127F619DA
:101FD0009E4207D92B4660462146189AFFF784FE99
:101FE0001BB0F0BD0023002C29DAE44EB04226DA03
:101FF000E34EB04201DB022321E0DE4EB0421EDBA5
:10200000E04E070DBE19142E09DD3427BF1B039EB9
:10201000FE400196BE40039FBE420BD00FE0039FDF
:10202000002F0CD11427BF1B0646FE400196BE4070
:10203000864204D1019BDE07F60F02239B1B0E464E
:10204000164318D1002D16DA002C03D0022B01D034
:10205000012B06D00220FFF777FEFFF73BFE1BB0F7
:10206000F0BD0220FFF770FEFFF734FE0122D20719
:1020700051401BB0F0BD039E002E61D1BF4EB04257
:1020800020D1C148844201D1002A08D0B9488142F8
:1020900009DB002D10DB189829461BB0F0BD00208D
:1020A000B4491BB0F0BD002D06DA01222946D20743
:1020B000189851401BB0F0BDB4497944086849688C
:1020C0001BB0F0BDAB4FB84225D1002D1FDA00295F
:1020D00004D0B14212D1002A09D018E0002A72D1EE
:1020E000A649E20F0020D20711431BB0F0BD00202B
:1020F000E20F0146D20711431BB0F0BDB14206DA30
:10210000234600203946FEF7D5F91BB0F0BD104636
:1021100021461BB0F0BDB14212DA0126B607B54226
:1021200003D1234610461946FEE3994EB54207D126
:10213000261E05DB1046314600F004FC1BB0F0BD46
:1021400067007F081646002A40D100290AD08B4A32
:10215000914229D1002C0EDD002D1CDB0020114600
:102160001BB0F0BD022B16D0002C14D0012B12D1C5
:10217000002C14DB0FE0002C28DA002D09DB012BEA
:1021800003D000207D491BB0F0BD002081491BB069
:10219000F0BD012B03D0002001461BB0F0BD002094
:1021A0000121C9071BB0F0BD724A91420ED1002C2B
:1021B00001DA002B17D0022B06D00020C043FDF718
:1021C000CDFF1BB0F0BD90E20120F8E7E217521CF2
:1021D00094461A4307D000220892664C62465B1E62
:1021E0001A4307D009E00120FFF7AEFDFFF780FD9D
:1021F0001BB0F0BD0022644C0892674A90427DDD1E
:10220000664B674A98421FDD914202DC002D05DBD8
:102210004DE05848814217DB002D48DD0220FFF7D2
:1022200093FDFFF76DFD05460E460022534B2146F8
:102230000898FEF7D7F8084671004908C00FC00794
:10224000014328461BB0F0BD914215DA002D2EDA6D
:102250000220FFF779FDFFF753FD05460E460022E9
:10226000464B21460898FEF7BDF872005208C80F89
:10227000C0070243114617E03E4B994223DD002D73
:1022800015DD0220FFF760FDFFF73AFD05460E461B
:1022900000223A4B21460898FEF7A4F80846710040
:1022A0004908C00FC007014328461BB0F0BD0220FB
:1022B000FFF74AFDFFF72EFD49004908E20FD2075C
:1022C00011431BB0F0BD002230463946FEF77CF8C2
:1022D000012205460E46D243FEF764F9314A324BDD
:1022E000FEF778F82A463346FEF77CF80022284BA2
:1022F000FEF770F807462A46334600E064E0039193
:1023000010461946FEF76EF83A46039BFEF76AF848
:102310000746032209915207244B28463146FEF70F
:1023200061F807910C90224A204B38460999FEF734
:1023300059F8074601911F4A1F4B28463146FEF7C0
:1023400051F83A46019BFEF73FF807460B46024616
:10235000099107990C98FDF793FF00250E46284632
:10236000079B0C9AFEF730F83A4627E0FFFF1F0064
:10237000FFFF0F000000F03F0000E0FF0000F07FD3
:102380000000404301FCFFFF0000F0BF6A090000AD
:102390000000E03F0000F0FF0000E0410000F043DB
:1023A000FFFFEF3F555555555555D53F4715F73F5D
:1023B000FE822B6544DF5DF80BAE543E099BFEF7B1
:1023C00009F802460B4652E1012500202D05A942DD
:1023D00007DA352230463946FEF7E4F8064634205F
:1023E000C0430A151218FE48101803900803FD494F
:1023F000000B01430F46FC49884201DC002003E04A
:10240000FA49884202DA0120119005E0002011907B
:102410000398401C7F1B039011980597C200F44855
:102420000F927844801843680268394630460D930D
:102430000292FDF7C9FF07910C9030460D9B029A5E
:102440000599FDF71DFF02460B460020E549FEF702
:1024500031F809910490079B0C9AFDF7C3FF129085
:1024600000201090E3480D46784400680E9001214A
:1024700078104907084311990D9B890440180121E0
:10248000C90447183946029A0E98FDF79DFF324657
:10249000059BFDF79FFF02460B4629461098FDF766
:1024A000A1FF064602913B4629460E9A1098FDF779
:1024B00099FF079B0C9AFDF78DFF3246029BFDF7B3
:1024C00083FF099B049AFDF78DFF0591129A0A90EC
:1024D0002B4610461946FDF785FF06460246C648BC
:1024E0000F460B4606217844FFF79EFB32463B46DB
:1024F0000091049010461946FDF774FF009B049A62
:10250000FDF770FF06460F462B461946129A1098A3
:10251000FDF7B6FE059B0A9AFDF764FF32463B467F
:10252000FDF7AEFE109A079104902B46104619460F
:10253000FDF758FFB14E0022334609910290FDF796
:102540009FFE079B049AFDF79BFE0020074602466C
:1025500033460091FDF738FF099B029AFDF734FFDF
:10256000079B049AFDF736FF06460D913A46294629
:10257000009B1098FDF736FF07910C902B463046D4
:10258000129A0D99FDF72EFF05460E463A46009B1E
:1025900005990A98FDF726FF33462A46FDF770FE97
:1025A00002460B460746099107990C98FDF768FE0D
:1025B00000250E462846079B0C9AFDF705FF3A4674
:1025C000099BFDF707FF07460722099152078C4B2D
:1025D00031462846FDF706FF07910090894A884B4F
:1025E00038460999FDF7FEFE07460191864A874B5A
:1025F00031462846FDF7F6FE3A46019BFDF740FEC0
:10260000834B7B440F9A9B181A685B68FDF738FE72
:10261000029009910398FDF7A1FD05910490099B93
:10262000029A07990098FDF72BFE7A4B7B440F9A8C
:102630009B181A685B6817460393FDF721FE059BFC
:10264000049AFDF71DFE0E462846059B049AFDF7E9
:10265000BBFE3A46039BFDF7B7FE079B009AFDF7CA
:10266000B3FE099B029AFDF7B5FE02460B46199987
:1026700000200C900F461898FDF7B4FE02910490CC
:102680003B460C9A19991898FDF79EFE2A46334648
:10269000FDF7A8FE029B049AFDF7F2FD09910E904A
:1026A0002A46334639460C98FDF79CFE06460F46EF
:1026B000099B0E9AFDF7E4FD574A0D46914220DB37
:1026C0005242AA18024310D132463B46FDF77CFE27
:1026D00004900391514A524B09990E98FDF7D0FD91
:1026E000039B049AFDF774FF1ED20220FFF72CFB18
:1026F000FFF706FB49004908E20FD20711431BB060
:10270000F0BD6A00474B52089A420DD3464AAA18B8
:10271000024300D0CBE532463B46FDF755FE099B10
:102720000E9AFDF755FFF5D96800002340082C49A3
:102730000393020D3D4B5218984223DD0120000502
:10274000521CD04042195000400D4018384979447D
:10275000096813468C463749C1408B431203012157
:10276000120B090551181422101AC1400391002DB3
:1027700001DA48420390624630463946FDF724FEAE
:1027800006460F4632463B4609990E98FDF778FDFE
:1027900000252A46284B28460591FDF723FE079180
:1027A0000C90264A264B28460599FDF71BFE009102
:1027B000029032463B4628460599FDF705FE099BE7
:1027C0000E9AFDF707FE1F4A1F4BFDF70BFE009BFD
:1027D000029AFDF755FD07460B460246099135E082
:1027E00001FCFFFF0000F03F8E9803007AB60B005B
:1027F0007A050000BC050000E60400000000084067
:1028000009C7EE3FFD033ADCF5015B14E02F3EBE45
:10281000BA0300008003000000009040FE822B6598
:102820004715973C00CC904000346F3F0000E03FDC
:10283000D6020000FFFF0F00432EE63F396CA80CC4
:10284000615C20BEEF39FAFE422EE63F07990C98F4
:10285000FDF716FD05460E46079B0C9AFDF7B4FDE5
:102860003A46099BFDF7B6FD09912A4633460E907C
:1028700010461946FDF7B6FD074602462F480B469F
:10288000059105217844FFF7CFF93A46059BFDF7FE
:10289000A9FD2A463346FDF79DFD074601912846CE
:1028A0003146099B0E9AFDF79DFD099B0E9AFDF797
:1028B000E7FC012304910C9000229B073846019904
:1028C000FDF782FD05910E903A4628463146019B60
:1028D000FDF788FD059B0E9AFDF7ECFD049B0C9A15
:1028E000FDF772FD2A463346FDF76EFD0022144BBC
:1028F000FDF770FD064603980D46000541190915C0
:10290000002912DC30462946039AFDF74BFEFFF7FB
:1029100075F9042801D1FFF7FDF930462946039ADD
:10292000FDF740FE064601E004E029180B4632465A
:1029300021460898FDF756FD1BB0F0BD7801000058
:102940000000F03FF8B506460C46FDF78AFE051E6E
:102950000F4600D00120014349000B484908411AA5
:10296000C90F0DD0002E01D0012100E000210C4341
:1029700061004908401AC00F02D10120FFF7E4F9B5
:1029800028463946F8BD00000000F07F0000000036
:10299000000000000102030406070809000000000F
:1029A000000000000000F03F000000000000F83FC1
:1029B00000000000000000000000004003B8E23FFB
:1029C000000000000000000006D0CF43EBFD4C3EAD
:1029D000033333333333E33FFFAB6FDBB66DDB3FA2
:1029E0004D268F515555D53F01411DA96074D13FEA
:1029F00065DBC9934A86CD3FEF4E454A287ECA3FE4
:102A00003E5555555555C53F93BDBE166CC166BF65
:102A10002CDE25AF6A56113FF16BD2C541BDBBBE5E
:102A2000D0A4BE726937663E0000000000000000BE
:102A3000502A00080000002018000000281D00088F
:102A4000682A000818000020D0040000381D000883
:102A500099C6400866390000000000000000000030
:082A600000127A0000000000E2
:04000005080000B53A
:00000001FF
